:020000040800F2
:10000000000003204508000895080008950800082E
:1000100095080008950800089508000800000000F1
:10002000000000000000000000000000950800082B
:100030009508000800000000950800086106000807
:10004000950800089508000895080008950800081C
:100050009508000895080008D106000895080008D2
:1000600095080008950800089508000895080008FC
:1000700095080008950800089508000895080008EC
:1000800095080008950800089508000895080008DC
:100090009508000895080008950800085D07000805
:1000A00095080008950800089508000895080008BC
:1000B00095080008950800089508000895080008AC
:1000C000950800089508000895080008950800089C
:1000D000950800089508000895080008950800088C
:1000E000950800089508000895080008950800087C
:1000F000950800089508000895080008950800086C
:10010000950800089508000895080008950800085B
:10011000950800089508000895080008950800084B
:10012000950800089508000895080008950800083B
:10013000950800089508000895080008950800082B
:10014000950800089508000895080008950800081B
:10015000950800089508000895080008950800080B
:1001600095080008950800089508000895080008FB
:100170009508000895080008950800080000000090
:1001800095080008950800089508000895080008DB
:1001900095080008950800089508000895080008CB
:0C01A00095080008950800089508000864
:1001AC0010B5054C237833B9044B13B10448AFF3A5
:1001BC0000800123237010BD04000020000000000B
:1001CC00E008000808B5034B1BB103490348AFF323
:1001DC00008008BD0000000008000020E0080008B6
:1001EC00034AD2F8883043F47003C2F88830704761
:1001FC0000ED00E008B500F04DF800F09DF800F0BF
:10020C000FF900F0B7F800F0D7F800F0F9F91E4A32
:10021C00136B43F007031363136B43F00203136375
:10022C001A490B6843F480430B60136B43F00403CF
:10023C001363174B196821F440211960196841F4B4
:10024C0000211960596821F400715960996821F4F2
:10025C0040219960996841F440219960D96821F452
:10026C004021D960596A21F0F0015962936823F05A
:10027C0078439360936843F040439360936843F0F2
:10028C006053936030BFFDE7003802400004024029
:10029C0000080240234B1A6C42F080521A64224927
:1002AC000A6842F440420A601A6842F480321A60CA
:1002BC001C4B1B6813F4003FFAD01C4A136823F044
:1002CC000F0343F005031360A2F58062936823F4D7
:1002DC007C4323F0F00343F414439360144B5360BA
:1002EC00136843F0807313600E4B1B6813F0007F90
:1002FC00FAD00C4A936823F0030343F00203936093
:10030C00084B9B6803F00C03082BF9D1054A1368C2
:10031C0023F001031360074B02F14A4202F5A132AC
:10032C001A6070470038024000700040003C0240E8
:10033C0008544007000000204FF0E0231A6922F017
:10034C0001021A61094A12680949A1FB02129209B9
:10035C00013A5A6100229A611A6922F007021A6165
:10036C001A6942F007021A61704700BF00000020B2
:10037C00D34D62100E4A136B43F0010313630D4B04
:10038C001A6822F4406222F003021A605A6822F0C2
:10039C0021025A60DA6822F4406222F00302DA6029
:1003AC00DA6842F4806242F00102DA60704700BF02
:1003BC000038024000000240164A536C43F480435C
:1003CC005364154B9A6822F00F029A60DA6822F097
:1003DC00F002DA6003F580639A6822F021029A60D9
:1003EC00DA6822F02102DA60DA6842F02102DA607F
:1003FC001A6842F021021A60084B502283F8062337
:10040C0040221A60602283F817234FF400021A600E
:10041C00704700BF003802400038014000E100E0A6
:10042C003F4A136B43F0080313633E4B1A6842F0C8
:10043C0004021A605A6822F002025A609A6842F06A
:10044C0008029A60DA6822F00C02DA609A6942F4C7
:10045C0000329A611A6842F010021A605A6822F04F
:10046C0004025A609A6842F020029A60DA6822F01C
:10047C003002DA609A6942F480229A611A6842F07A
:10048C0040021A605A6822F008025A609A6842F0D8
:10049C0080029A60DA6822F0C002DA609A6942F44B
:1004AC0000229A611A6842F480721A605A6822F02B
:1004BC0010025A609A6842F400729A60DA6822F468
:1004CC004072DA609A6942F480129A611A6842F4B6
:1004DC0080521A605A6822F040025A609A6842F4BC
:1004EC0000529A60DA6822F44052DA609A6942F457
:1004FC0080029A611A6842F480421A605A6822F0AB
:10050C0080025A609A6842F400429A60DA6822F4D7
:10051C004042DA609A6942F400029A61704700BF67
:10052C0000380240000C0240024A936943F45E0317
:10053C0093617047000C0240052827D8DFE800F0D3
:10054C0003090F151B21124A936943F002039361AF
:10055C0070470F4A936943F00403936170470C4A48
:10056C00936943F0080393617047094A936943F018
:10057C00100393617047064A936943F040039361FB
:10058C007047034A936943F080039361704700BF3F
:10059C00000C0240052827D8DFE800F003090F15EE
:1005AC001B21124A936943F40033936170470F4A3D
:1005BC00936943F48023936170470C4A936943F425
:1005CC00002393617047094A936943F48013936144
:1005DC007047064A936943F4800393617047034A5A
:1005EC00936943F400039361704700BF000C024011
:1005FC0010B50446FFF798FF2046FFF79DFF10BD8E
:10060C0008B500230A4A13700A4A13700A4A137079
:10061C000A4A13600A4A13700A4A13600A4A1360A2
:10062C000A4A13700A4A1360FFF77EFF08BD00BF29
:10063C002600002025000020240000202800002097
:10064C00270000203800002034000020300000205B
:10065C002C00002008B5144A136801331360134BA7
:10066C001B78C3B9124B1A6801321A60114A1178FF
:10067C00114A52F821201B689A420CD80C4B0022CC
:10068C001A600E4B1B783BB10D4B1878FFF782FFAD
:10069C000A4B00221A7008BD094B1878FFF74CFF63
:1006AC00064B01221A70F6E72000002026000020DD
:1006BC002800002024000020F80800082700002053
:1006CC002500002008B51A4B5B6913F0010F29D0E7
:1006DC00174A536943F001035361164B1A68164BC2
:1006EC001B68D31AB3F5967F1CD3134B1A60134BAC
:1006FC001B6913F0010F15D1114A13780133DBB2CA
:10070C0013701378DBB2052B02D9134600221A7032
:10071C0000230C4A13600C4A13700C4B1B7813B952
:10072C00FFF702FF08BD064B1878FFF761FFF9E7EA
:10073C00003C014020000020380000200000024056
:10074C002500002028000020270000202600002083
:10075C0008B52E4B5B6913F0200F18D02B4A536948
:10076C0043F0200353612A4B1A682A4B1B68D31A97
:10077C00B3F5967F0BD3274B1A60274B1B6913F0ED
:10078C00200F05D1254B01211970254B1A6008BD8E
:10079C00224B1B78002BFAD0204B00211970204BD8
:1007AC001B68D21AB2F57A7F14D31E4B1B783BB957
:1007BC001C4B01221A701C4B1878FFF719FFE6E747
:1007CC000023184A1370194A1360194A1370FFF763
:1007DC00ABFEDCE7174A13780133DBB213701378E6
:1007EC00DBB2022B02D9134600221A7000230F4AE7
:1007FC0013600F4A13700B4B1B78DBB2012BC6D165
:10080C00094B1878FFF7F4FEC1E700BF003C01402C
:10081C0020000020340000200000024030000020A6
:10082C002C0000202600002025000020280000209D
:10083C002700002024000020DFF834D00D480E499A
:10084C000E4A002302E0D458C4500433C4188C421E
:10085C00F9D30B4A0B4C002301E013600432A24283
:10086C00FBD3FFF7BDFC00F011F8FFF7C3FC70479A
:10087C000000032000000020040000200C090008E8
:10088C00040000203C000020FEE7000070B50D4D78
:10089C000D4C641BA4100026A64209D10B4D0C4C28
:1008AC0000F018F8641BA4100026A64205D170BDF8
:1008BC0055F8043B98470136EEE755F8043B98474A
:1008CC000136F2E7040900080409000804090008CD
:1008DC0008090008F8B500BFF8BC08BC9E46704774
:0C08EC00F8B500BFF8BC08BC9E46704781
:0C08F800C4090000710200008101000032
:04090400D101000815
:04090800AD01000835
:04090C000024F400CF
:0400000508000845A2
:00000001FF
