:020000040800F2
:100000000000032091040008E1040008E104000856
:10001000E1040008E1040008E10400080000000019
:10002000000000000000000000000000E1040008E3
:10003000E104000800000000E1040008E1040008F9
:10004000E1040008E1040008E1040008E1040008FC
:10005000E1040008E104000861040008E10400086C
:10006000E1040008E1040008E1040008E1040008DC
:10007000E1040008E1040008E1040008E1040008CC
:10008000E1040008E1040008E1040008E1040008BC
:10009000E1040008E1040008E1040008E1040008AC
:1000A000E1040008E1040008E1040008E10400089C
:1000B00029040008E1040008E1040008E104000844
:1000C000E1040008E1040008E1040008E10400087C
:1000D000E1040008E1040008E1040008E10400086C
:1000E000E1040008E1040008E1040008E10400085C
:1000F000E1040008E1040008E1040008E10400084C
:10010000E1040008E1040008E1040008E10400083B
:10011000E1040008E1040008E1040008E10400082B
:10012000E1040008E1040008E1040008E10400081B
:10013000E1040008E1040008E1040008E10400080B
:10014000E1040008E1040008E1040008E1040008FB
:10015000E1040008E1040008E1040008E1040008EB
:10016000E1040008E1040008E1040008E1040008DB
:10017000E1040008E1040008E104000800000000B8
:10018000E1040008E1040008E1040008E1040008BB
:10019000E1040008E1040008E1040008E1040008AB
:0C01A000E1040008E1040008E10400088C
:1001AC0010B5054C237833B9044B13B10448AFF3A5
:1001BC0000800123237010BD04000020000000000B
:1001CC002C05000808B5034B1BB103490348AFF3DA
:1001DC00008008BD00000000080000202C0500086D
:1001EC00034AD2F8883043F47003C2F88830704761
:1001FC0000ED00E008B500F0BFF800F031F800F0B9
:10020C008BF800F005F8002000F00EF830BFFDE789
:10021C00044B4FF060729A6103F580634FF4003227
:10022C009A61704700140240032814D8DFE800F0EC
:10023C0002060B10084B80229A617047064B4FF454
:10024C0080729A617047044B4FF400729A61704748
:10025C00024B02229A6170470014024000180240BF
:10026C00294B1A6B42F061021A635A6C42F48042B9
:10027C005A64A3F510531A6822F47C221A601A6887
:10028C0042F4A8221A605A6822F460725A60DA6842
:10029C0022F47C22DA6003F580631A6822F00C02E7
:1002AC001A601A6842F004021A605A6822F00202BC
:1002BC005A60DA6822F00C02DA60A3F5C0531A68AF
:1002CC0022F003021A60DA6822F00302DA60DA68BC
:1002DC0042F00102DA600D4A936823F00F03936039
:1002EC000B4B1A6842F001021A60DA6842F0010204
:1002FC00DA609A6822F001029A60064B102283F8A9
:10030C00062340221A607047003802400038014032
:10031C00003C014000E100E00F4A136C43F0010384
:10032C0013644FF0804300221A605A6242F2CF02EB
:10033C009A6242F20F72DA62DA6842F00102DA6013
:10034C00064A202182F81C134FF0805111601A6864
:10035C0042F001021A6070470038024000E100E0F0
:10036C00044B33F810204FF08043DA6201225A61BB
:10037C00704700BF44050008234B1A6C42F08052B2
:10038C001A6422490A6842F440420A601A6842F42C
:10039C0080321A601C4B1B6813F4003FFAD01C4AC5
:1003AC00136823F00F0343F005031360A2F580627A
:1003BC00936823F47C4323F0F00343F414439360D9
:1003CC00144B5360136843F0807313600E4B1B681F
:1003DC0013F0007FFAD00C4A936823F0030343F028
:1003EC0002039360084B9B6803F00C03082BF9D1B4
:1003FC00054A136823F001031360074B02F14A42CC
:10040C0002F5A1321A6070470038024000700040BB
:10041C00003C0240085440070000002008B54FF093
:10042C0080431B6913F0010F00D108BD4FF08042CF
:10043C00136923F001031361FFF7EAFE044A1378F2
:10044C00013303F0030313701078FFF7EDFEECE7B4
:10045C002100002008B5094B5B6913F0010F00D196
:10046C0008BD064B01225A61054A1378013303F08B
:10047C00030313701078FFF773FFF1E7003C0140A2
:10048C0020000020DFF834D00D480E490E4A00231E
:10049C0002E0D458C4500433C4188C42F9D30B4A2C
:1004AC000B4C002301E013600432A242FBD3FFF794
:1004BC0097FE00F011F8FFF79DFE70470000032037
:1004CC000000002004000020540500080400002057
:1004DC0024000020FEE7000070B50D4D0D4C641B90
:1004EC00A4100026A64209D10B4D0C4C00F018F8B4
:1004FC00641BA4100026A64205D170BD55F8043B20
:10050C0098470136EEE755F8043B98470136F2E779
:10051C004C0500084C0500084C0500085005000867
:10052C00F8B500BFF8BC08BC9E467047F8B500BFD4
:08053C00F8BC08BC9E467047A4
:080544000F27CF07E703F301C5
:04054C00D1010008D1
:04055000AD010008F1
:040554000024F4008B
:04000005080004915A
:00000001FF
