:020000040800F2
:1000000000000320DD0500082D0600082D0600086D
:100010002D0600082D0600082D060008000000002F
:100020000000000000000000000000002D06000895
:100030002D060008000000002D0600082D0600080F
:100040002D0600082D0600082D0600082D060008C4
:100050002D0600082D0600082D0600082D060008B4
:100060002D0600082D0600082D0600082D060008A4
:100070002D0600082D0600082D0600082D06000894
:100080002D0600082D0600082D0600082D06000884
:100090002D0600082D0600082D0600082D06000874
:1000A0002D0600082D0600082D0600082D06000864
:1000B0002D0600082D0600082D0600082D06000854
:1000C0002D0600082D0600082D0600082D06000844
:1000D0002D0600082D0600082D0600082D06000834
:1000E0002D0600082D0600082D0600082D06000824
:1000F0002D0600082D0600082D0600082D06000814
:100100002D0600082D0600082D0600082D06000803
:100110002D0600082D0600082D0600082D060008F3
:100120002D0600082D0600082D0600082D060008E3
:100130002D0600082D0600082D0600082D060008D3
:100140002D0600082D0600082D0600082D060008C3
:100150002D0600082D0600082D0600082D060008B3
:100160002D0600082D0600082D0600082D060008A3
:100170002D0600082D0600082D06000800000000CE
:100180002D0600082D0600082D0600082D06000883
:100190002D0600082D0600082D0600082D06000873
:0C01A0002D0600082D0600082D060008A2
:1001AC0010B5054C237833B9044B13B10448AFF3A5
:1001BC0000800123237010BD00000020000000000F
:1001CC007806000808B5034B1BB103490348AFF38D
:1001DC00008008BD00000000040000207806000824
:1001EC00034AD2F8883043F47003C2F88830704761
:1001FC0000ED00E0394B4FF400129A6103F5805387
:10020C004FF480329A61A3F580634FF080529A616B
:10021C000A46002961D070BBA3F540632021996187
:10022C00012A5AD9431C2E49A1FB03C101F4FF7CBE
:10023C000CEB51015B1A13F0FF0327D1274B202144
:10024C009961022A49D9274B1B78002B34D10230F3
:10025C00A3F15533A3FB002303F4FF7202EB53030A
:10026C00C01A10F0FF001CD11C4B20229A611D4BB0
:10027C0001221A707047012804D01B4B4FF4805197
:10028C009961CDE7194B01219961C9E7012B04D084
:10029C00154B4FF480519961D3E7144B01219961AF
:1002AC00CFE7012804D0104B4FF480529A61DEE75F
:1002BC000E4B01229A61DAE7084B4FF400129A6157
:1002CC0003F580534FF480329A61A3F580634FF0AD
:1002DC0080529A61034B00221A7070470000024052
:1002EC00ABAAAAAA1C000020000C0240001002407D
:1002FC0008B57AB18BB90A4B4FF400129A6103F529
:10030C0080534FF480329A61A3F580634FF0805292
:10031C009A6108BDFFF76EFFFBE7FFF76BFFF8E78D
:10032C00000002402DE9F04F89B000F0B9F800F060
:10033C00E7F800F005F900F02BF9554B93E80700AE
:10034C0008AB03E90700534B4FF400129A6103F515
:10035C0080534FF480329A61A3F580634FF0805242
:10036C009A614FF000094FF0010BC8465F464E46AC
:10037C00CA46CDF8009011E0464BD3F8103813F470
:10038C00005F29D00125434B1C6904F00104012FA7
:10039C0024D00EB9002D59D127462E46B8F1000FA6
:1003AC00EAD0BAF1000FE7D009F1010908F1FF33E7
:1003BC0008AA02EB830353F80C3C4B45DCD88BF0BA
:1003CC00010B5FFA8BFB5B46424651460098FFF7E8
:1003DC008FFF4FF00009CFE70025D4E7002CD8D1D0
:1003EC002D4B0393039B5A1E0392002BFAD1294BDE
:1003FC001B6913F001030193CBD1019B01E0013385
:10040C0000BF244A126912F0010FF8D0234A93421C
:10041C000ED80AF1010A5FFA8AFABAF1030F00D971
:10042C00A2465B46424651460098FFF761FFB0E793
:10043C0008F1010808F003080123424651460098D0
:10044C00FFF756FFDDF80490BB46A2E7124B04936E
:10045C00049B5A1E0492002BFAD10E4BD3F8103881
:10046C0013F4005F98D00B4BD3F8103813F4005FE3
:10047C00F9D1009B0133DBB2022B07D95B46424614
:10048C0051463046FFF734FF009685E71E46F5E7E8
:10049C009006000800000240400D0300FF083D00DC
:1004AC00154AD2F8303843F00103C2F83038134BF8
:1004BC00196821F003011960DA6822F00302DA608E
:1004CC0042F00102DA6021F44061196041F480616C
:1004DC001960596821F020015960996821F4406134
:1004EC00996041F48061996022F44062DA604FF4C3
:1004FC0000129A61704700BF0030024000000240B9
:10050C000C4AD2F8303843F00403C2F830380A4BA6
:10051C00D3F8002822F04062C3F80028D3F80C2846
:10052C0022F04062C3F80C28044AD36843F00063FD
:10053C00D3607047003002400000024000080240C7
:10054C00114AD2F8303843F01003C2F830380F4B50
:10055C001A6822F003021A601A6842F001021A604B
:10056C005A6822F001025A609A6822F003029A60DB
:10057C009A6842F001029A60DA6822F00302DA60AB
:10058C004FF480329A6170470030024000100240F4
:10059C000D4A136B43F0080313630C4B1A6842F0BB
:1005AC0080721A605A6822F480525A609A6842F03B
:1005BC0080729A60DA6822F04072DA609A6942F0CE
:1005CC0080529A61704700BF00380240000C024014
:1005DC00DFF834D00D480E490E4A002302E0D458FF
:1005EC00C4500433C4188C42F9D30B4A0B4C00236F
:1005FC0001E013600432A242FBD3FFF7F1FD00F0DF
:10060C0011F8FFF78FFE7047000003200000002058
:10061C0000000020A406000800000020200000209C
:10062C00FEE7000070B50D4D0D4C641BA4100026A8
:10063C00A64209D10B4D0C4C00F018F8641BA41009
:10064C000026A64205D170BD55F8043B98470136EB
:10065C00EEE755F8043B98470136F2E79C06000894
:10066C009C0600089C060008A0060008F8B500BF10
:10067C00F8BC08BC9E467047F8B500BFF8BC08BC77
:04068C009E467047CF
:0C069000409C0000204E000010270000DD
:04069C00D101000880
:0406A000AD010008A0
:04000005080005DD0D
:00000001FF
