:020000040800F2
:1000000000000320C10500081106000811060008C1
:100010001106000811060008110600080000000083
:1000200000000000000000000000000011060008B1
:1000300011060008000000001106000881040008F5
:100040001106000811060008110600081106000834
:1000500011060008110600088105000811060008B5
:100060001106000811060008110600081106000814
:100070001106000811060008110600081106000804
:1000800011060008110600081106000811060008F4
:1000900011060008110600081106000811060008E4
:1000A00011060008110600081106000811060008D4
:1000B00031050008110600081106000811060008A5
:1000C00011060008110600081106000811060008B4
:1000D00011060008110600081106000811060008A4
:1000E0001106000811060008110600081106000894
:1000F0001106000811060008110600081106000884
:100100001106000811060008110600081106000873
:100110001106000811060008110600081106000863
:100120001106000811060008110600081106000853
:100130001106000811060008110600081106000843
:100140001106000811060008110600081106000833
:100150001106000811060008110600081106000823
:100160001106000811060008110600081106000813
:100170001106000811060008110600080000000022
:1001800011060008110600081106000811060008F3
:1001900011060008110600081106000811060008E3
:0C01A000110600081106000811060008F6
:1001AC0010B5054C237833B9044B13B10448AFF3A5
:1001BC0000800123237010BD04000020000000000B
:1001CC005C06000808B5034B1BB103490348AFF3A9
:1001DC00008008BD00000000080000205C0600083C
:1001EC00034AD2F8883043F47003C2F88830704761
:1001FC0000ED00E008B500F0EBF800F0D5F800F0E9
:10020C003DF800F0A1F800F011F80023044A137037
:10021C00044A1370044A1370024B1B7830BFFBE77F
:10022C002C0000202E0000202D000020044B4FF04D
:10023C0060729A6103F580634FF400329A617047E3
:10024C0000140240032814D8DFE800F002060B105B
:10025C00084B80229A617047064B4FF480729A616A
:10026C007047044B4FF400729A617047024B0222A4
:10027C009A61704700140240001802402E4B1A6B12
:10028C0042F001021A631A6B42F020021A631A6BD5
:10029C0042F040021A635A6C42F480425A64A3F54D
:1002AC0010531A6822F47C221A601A6842F4A822AD
:1002BC001A605A6822F460725A60DA6822F47C225E
:1002CC00DA6003F580631A6822F00C021A601A686F
:1002DC0042F004021A605A6822F002025A60DA688C
:1002EC0022F00C02DA60A3F5C0531A6822F0030264
:1002FC001A60DA6822F00302DA60DA6842F001026E
:10030C00DA600E4A936823F00F0393600C4B1A6863
:10031C0042F001021A60DA6842F00102DA609A686F
:10032C0022F001029A6001225A61064B102283F8D6
:10033C00062340221A607047003802400038014002
:10034C00003C014000E100E00D4A136C43F0010356
:10035C0013644FF0804300221A605A6242F2CF02BB
:10036C009A6242F20F72DA62DA6842F00102DA60E3
:10037C00044B202283F81C234FF080521A607047E4
:10038C000038024000E100E0032800D90020054BB2
:10039C0033F810204FF08043DA625A6942F00102C0
:1003AC005A61704774060008074B1B68074AA2FB8A
:1003BC0003239B09013B4FF0E0225361002393611F
:1003CC0007231361704700BF00000020D34D62105B
:1003DC00234B1A6C42F080521A6422490A6842F488
:1003EC0040420A601A6842F480321A601C4B1B6847
:1003FC0013F4003FFAD01C4A136823F00F0343F0A8
:10040C0005031360A2F58062936823F47C4323F008
:10041C00F00343F414439360144B5360136843F09C
:10042C00807313600E4B1B6813F0007FFAD00C4ADC
:10043C00936823F0030343F002039360084B9B681B
:10044C0003F00C03082BF9D1054A136823F00103C0
:10045C001360074B02F14A4202F5A1321A60704751
:10046C000038024000700040003C02400854400735
:10047C0000000020234A136801331360224B1B78C1
:10048C00002B3DD01368214A12689B1A002B37DBD6
:10049C001D4B00221A701E4B1B6913F0010F29D142
:1004AC0010B51C4B1B78DBB91A4B01221A701A4C75
:1004BC0000222270194B1A701878FFF765FFFFF7AE
:1004CC00B5FE2078FFF7BEFE4FF08042136843F074
:1004DC0001031360124A136843F00103136010BD4B
:1004EC000E4A1378013303F0030313701078FFF7EF
:1004FC004BFFEFE70A4A136843F0010313607047A0
:10050C00704700BF30000020240000202000002095
:10051C00000002402C0000202E0000202D000020A6
:10052C00003C014008B54FF080431B6913F0010FEC
:10053C0008D04FF08042136923F0010313610A4B7A
:10054C001B7803B908BDFFF771FE084A1368013325
:10055C001360074A1378013303F003031370107808
:10056C00FFF770FEEEE700BF2C00002028000020F3
:10057C002E0000200B4B5B6913F0010F11D0094BBF
:10058C0001225A61084B1B785BB9074B1A70074B59
:10059C001B681433064A1360024A136823F00103E4
:1005AC0013607047003C0140240000203000002004
:1005BC0020000020DFF834D00D480E490E4A0023ED
:1005CC0002E0D458C4500433C4188C42F9D30B4AFB
:1005DC000B4C002301E013600432A242FBD3FFF763
:1005EC00FFFD00F011F8FFF705FE70470000032037
:1005FC0000000020040000208406000804000020F5
:10060C0034000020FEE7000070B50D4D0D4C641B4E
:10061C00A4100026A64209D10B4D0C4C00F018F882
:10062C00641BA4100026A64205D170BD55F8043BEE
:10063C0098470136EEE755F8043B98470136F2E748
:10064C007C0600087C0600087C0600088006000872
:10065C00F8B500BFF8BC08BC9E467047F8B500BFA3
:08066C00F8BC08BC9E46704773
:080674000F27CF07E703F30194
:04067C00D1010008A0
:04068000AD010008C0
:040684000024F4005A
:04000005080005C129
:00000001FF
