:020000040800F2
:1000000000000320150800086508000865080008BE
:100010006508000865080008650800080000000081
:10002000000000000000000000000000650800085B
:100030006508000800000000650800084107000886
:1000400065080008650800086508000865080008DC
:1000500065080008650800087D07000865080008B5
:1000600065080008650800086508000865080008BC
:1000700065080008650800086508000865080008AC
:10008000650800086508000865080008650800089C
:10009000650800086508000865080008BD07000835
:1000A000650800086508000865080008650800087C
:1000B000650800086508000865080008650800086C
:1000C000650800086508000865080008650800085C
:1000D000650800086508000865080008650800084C
:1000E000650800086508000865080008650800083C
:1000F000650800086508000865080008650800082C
:10010000650800086508000865080008650800081B
:10011000650800086508000865080008650800080B
:1001200065080008650800086508000865080008FB
:1001300065080008650800086508000865080008EB
:1001400065080008650800086508000865080008DB
:1001500065080008650800086508000865080008CB
:1001600065080008650800086508000865080008BB
:100170006508000865080008650800080000000020
:10018000650800086508000865080008650800089B
:10019000650800086508000865080008650800088B
:0C01A000650800086508000865080008F4
:1001AC0010B5054C237833B9044B13B10448AFF3A5
:1001BC0000800123237010BD080000200000000007
:1001CC00B008000808B5034B1BB103490348AFF353
:1001DC00008008BD000000000C000020B0080008E2
:1001EC00034AD2F8883043F47003C2F88830704761
:1001FC0000ED00E008B5134B1B78DBB1114B00226E
:10020C001A70114B1B78DBB2FF2B0CD00E4A1378F3
:10021C000133DBB213701378DBB2052B05D913460F
:10022C0000221A7001E0084B1A70084B1B78DBB2E5
:10023C00012B00D008BD00F047FA034B187800F0F2
:10024C004BFAF7E744000020040000202D000020AA
:10025C0038B5274B1C68274B1B783BB1254B00222C
:10026C001A70254B01221A70244B1C60244B1B78EE
:10027C00002B2FD0224B00221A701F4B1B784BB334
:10028C001D4B1A701D4B1B68E31AB3F5FA6F22D382
:10029C001C4B1B78ABB91B4B01221A7000F014FAE3
:1002AC00194B1B78DBB2FF2B03D1184B00221A70B1
:1002BC0010E0154B187800F00FFA144B01221A704D
:1002CC0008E000250F4B1D7000F0FEF90F4B1D7060
:1002DC000F4B1C6038BD0F4A13780133DBB213701F
:1002EC001378DBB2022BF5D9134600221A70F1E712
:1002FC00480000203D000020340000203000002089
:10030C003C0000202D0000200400002025000020CF
:10031C00280000202C00002008B5144B1B78F3B9E2
:10032C00134B1B78DBB2FF2B19D0124B1A68124BF4
:10033C001978124B53F82110114B1B68D31A8B42AE
:10034C000DD30F4B1A600F4B1B784BB900F0BCF957
:10035C00074B187800F0C0F90A4B01221A7008BD3F
:10036C0000F0B2F9074B00221A70F8E72D000020BC
:10037C0004000020480000202C000020C8080008C1
:10038C00280000202500002008B500F01BF800F024
:10039C006BF800F0E1F800F07DF800F09FF800F049
:1003AC0093F9074A536943F02103536100F058F95C
:1003BC00FFF720FFFFF74CFFFFF7AEFFF8E700BF9A
:1003CC00003C0140234B1A6C42F080521A642249C3
:1003DC000A6842F440420A601A6842F480321A6099
:1003EC001C4B1B6813F4003FFAD01C4A136823F013
:1003FC000F0343F005031360A2F58062936823F4A6
:10040C007C4323F0F00343F414439360144B536088
:10041C00136843F0807313600E4B1B6813F0007F5E
:10042C00FAD00C4A936823F0030343F00203936061
:10043C00084B9B6803F00C03082BF9D1054A136891
:10044C0023F001031360074B02F14A4202F5A1327B
:10045C001A6070470038024000700040003C0240B7
:10046C00883E4007000000204FF0E0231A6922F07C
:10047C0001021A61064A5A6100229A611A6922F035
:10048C0007021A611A6942F007021A61704700BF2D
:10049C003F9002000F4A136B43F0010313630E4BA2
:1004AC001A6822F003021A601A6822F440621A6079
:1004BC005A6822F001025A605A6822F020025A60EF
:1004CC00DA6842F00102DA60DA6842F48062DA60DB
:1004DC00704700BF00380240000002401B4A536CBA
:1004EC0043F4804353641A4B9A6822F00F029A60CB
:1004FC00DA6822F0F002DA6003F580639A6822F081
:10050C0021029A60DA6822F02102DA60DA6842F09D
:10051C000102DA60DA6842F02002DA609A6842F08E
:10052C0020029A601A6842F021021A6021225A6154
:10053C00084B502283F8062340221A60602283F86D
:10054C0017234FF400021A60704700BF00380240B6
:10055C000038014000E100E03F4A136B43F0080310
:10056C0013633E4B1A6842F004021A605A6822F078
:10057C0002025A609A6842F008029A60DA6822F025
:10058C000C02DA609A6942F400329A611A6842F0FD
:10059C0010021A605A6822F004025A609A6842F0FB
:1005AC0020029A60DA6822F03002DA609A6942F42A
:1005BC0080229A611A6842F040021A605A6822F04E
:1005CC0008025A609A6842F080029A60DA6822F057
:1005DC00C002DA609A6942F400229A611A6842F405
:1005EC0080721A605A6822F010025A609A6842F4BB
:1005FC0000729A60DA6822F44072DA609A6942F406
:10060C0080129A611A6842F480521A605A6822F079
:10061C0040025A609A6842F400529A60DA6822F4F6
:10062C004052DA609A6942F480029A611A6842F484
:10063C0080421A605A6822F080025A609A6842F42A
:10064C0000429A60DA6822F44042DA609A6942F415
:10065C0000029A61704700BF00380240000C024053
:10066C00174A136B43F004031363164B196821F4F8
:10067C0040211960196841F400211960596821F46E
:10068C0000715960996821F440219960996841F48E
:10069C0040219960D96821F44021D960596A21F030
:1006AC00F0015962936823F078439360936843F0A8
:1006BC0040439360936843F060539360704700BF6E
:1006CC000038024000080240024A936943F45E037A
:1006DC0093617047000C0240052827D8DFE800F032
:1006EC0003090F151B21124A936943F0020393610E
:1006FC0070470F4A936943F00403936170470C4AA7
:10070C00936943F0080393617047094A936943F076
:10071C00100393617047064A936943F04003936159
:10072C007047034A936943F080039361704700BF9D
:10073C00000C02400B4A1368013313600A4A1388F9
:10074C009BB201339BB2138013889BB2B3F57A7FB3
:10075C0006D3064A136801331360034B00221A8038
:10076C00704700BF480000204C00002024000020EF
:10077C000B4B5B6913F0010F10D00A4B1A680A4B34
:10078C001B68D31AC72B04D9074B1A60074B0122DD
:10079C001A70034A536943F001035361704700BF59
:1007AC00003C014048000020400000204400002094
:1007BC000F4B5B6913F0200F15D00E4B1A680E4BC4
:1007CC001B68D31AC72B09D90B4B1A600B4B1B692F
:1007DC0013F0200F08D10A4B01221A70044A5369F6
:1007EC0043F0200353617047064B01221A70F5E762
:1007FC00003C01404800002038000020000002406E
:10080C003D0000203C000020DFF834D00D480E499C
:10081C000E4A002302E0D458C4500433C4188C424E
:10082C00F9D30B4A0B4C002301E013600432A242B3
:10083C00FBD3FFF7D5FC00F011F8FFF7A5FD7047CF
:10084C00000003200000002008000020DC08000845
:10085C000800002050000020FEE7000070B50D4D90
:10086C000D4C641BA4100026A64209D10B4D0C4C58
:10087C0000F018F8641BA4100026A64205D170BD28
:10088C0055F8043B98470136EEE755F8043B98477A
:10089C000136F2E7D4080008D4080008D408000890
:1008AC00D8080008F8B500BFF8BC08BC9E467047D5
:0C08BC00F8B500BFF8BC08BC9E467047B1
:0C08C800C4090000710200008101000062
:0408D400D101000846
:0408D800AD01000866
:0808DC000024F400FF000000FD
:0400000508000815D2
:00000001FF
